{
  "contractName": "LandRegistry",
  "abi": [
    {
      "inputs": [],
      "stateMutability": "nonpayable",
      "type": "constructor"
    },
    {
      "anonymous": false,
      "inputs": [
        {
          "indexed": false,
          "internalType": "uint256",
          "name": "propertyId",
          "type": "uint256"
        },
        {
          "indexed": true,
          "internalType": "address",
          "name": "ownerAddress",
          "type": "address"
        },
        {
          "indexed": false,
          "internalType": "string",
          "name": "ownerName",
          "type": "string"
        },
        {
          "indexed": false,
          "internalType": "string",
          "name": "landUse",
          "type": "string"
        },
        {
          "indexed": false,
          "internalType": "uint256",
          "name": "landSize",
          "type": "uint256"
        },
        {
          "indexed": false,
          "internalType": "string",
          "name": "location",
          "type": "string"
        }
      ],
      "name": "LandOwnershipRegistered",
      "type": "event"
    },
    {
      "anonymous": false,
      "inputs": [
        {
          "indexed": false,
          "internalType": "uint256",
          "name": "propertyId",
          "type": "uint256"
        },
        {
          "indexed": true,
          "internalType": "address",
          "name": "from",
          "type": "address"
        },
        {
          "indexed": true,
          "internalType": "address",
          "name": "to",
          "type": "address"
        },
        {
          "indexed": false,
          "internalType": "string",
          "name": "newOwnerName",
          "type": "string"
        },
        {
          "indexed": false,
          "internalType": "string",
          "name": "newOwnerContactInfo",
          "type": "string"
        },
        {
          "indexed": false,
          "internalType": "string",
          "name": "thirdPartyName",
          "type": "string"
        },
        {
          "indexed": false,
          "internalType": "string",
          "name": "thirdPartyContactInfo",
          "type": "string"
        }
      ],
      "name": "LandOwnershipTransferred",
      "type": "event"
    },
    {
      "anonymous": false,
      "inputs": [
        {
          "indexed": false,
          "internalType": "uint256",
          "name": "propertyId",
          "type": "uint256"
        },
        {
          "indexed": true,
          "internalType": "address",
          "name": "ownerAddress",
          "type": "address"
        },
        {
          "indexed": false,
          "internalType": "string",
          "name": "ownerName",
          "type": "string"
        },
        {
          "indexed": false,
          "internalType": "string",
          "name": "landUse",
          "type": "string"
        },
        {
          "indexed": false,
          "internalType": "uint256",
          "name": "landSize",
          "type": "uint256"
        },
        {
          "indexed": false,
          "internalType": "string",
          "name": "location",
          "type": "string"
        }
      ],
      "name": "LandOwnershipUpdated",
      "type": "event"
    },
    {
      "inputs": [
        {
          "internalType": "uint256",
          "name": "",
          "type": "uint256"
        }
      ],
      "name": "landOwnerships",
      "outputs": [
        {
          "internalType": "address",
          "name": "ownerAddress",
          "type": "address"
        },
        {
          "internalType": "string",
          "name": "ownerName",
          "type": "string"
        },
        {
          "internalType": "string",
          "name": "ownerContactInfo",
          "type": "string"
        },
        {
          "internalType": "string",
          "name": "landUse",
          "type": "string"
        },
        {
          "internalType": "uint256",
          "name": "taxAssessmentValue",
          "type": "uint256"
        },
        {
          "internalType": "string",
          "name": "zoningAndPlanningDetails",
          "type": "string"
        },
        {
          "internalType": "string",
          "name": "legalDetails",
          "type": "string"
        },
        {
          "internalType": "uint256",
          "name": "landSize",
          "type": "uint256"
        },
        {
          "internalType": "string",
          "name": "location",
          "type": "string"
        }
      ],
      "stateMutability": "view",
      "type": "function",
      "constant": true
    },
    {
      "inputs": [],
      "name": "owner",
      "outputs": [
        {
          "internalType": "address",
          "name": "",
          "type": "address"
        }
      ],
      "stateMutability": "view",
      "type": "function",
      "constant": true
    },
    {
      "inputs": [
        {
          "internalType": "uint256",
          "name": "_propertyId",
          "type": "uint256"
        },
        {
          "internalType": "string",
          "name": "_ownerName",
          "type": "string"
        },
        {
          "internalType": "string",
          "name": "_ownerContactInfo",
          "type": "string"
        },
        {
          "internalType": "string",
          "name": "_landUse",
          "type": "string"
        },
        {
          "internalType": "uint256",
          "name": "_taxAssessmentValue",
          "type": "uint256"
        },
        {
          "internalType": "string",
          "name": "_zoningAndPlanningDetails",
          "type": "string"
        },
        {
          "internalType": "string",
          "name": "_legalDetails",
          "type": "string"
        },
        {
          "internalType": "uint256",
          "name": "_landSize",
          "type": "uint256"
        },
        {
          "internalType": "string",
          "name": "_location",
          "type": "string"
        }
      ],
      "name": "registerLandOwnership",
      "outputs": [],
      "stateMutability": "nonpayable",
      "type": "function"
    },
    {
      "inputs": [
        {
          "internalType": "uint256",
          "name": "_propertyId",
          "type": "uint256"
        },
        {
          "internalType": "string",
          "name": "_ownerName",
          "type": "string"
        },
        {
          "internalType": "string",
          "name": "_ownerContactInfo",
          "type": "string"
        },
        {
          "internalType": "string",
          "name": "_landUse",
          "type": "string"
        },
        {
          "internalType": "uint256",
          "name": "_taxAssessmentValue",
          "type": "uint256"
        },
        {
          "internalType": "string",
          "name": "_zoningAndPlanningDetails",
          "type": "string"
        },
        {
          "internalType": "string",
          "name": "_legalDetails",
          "type": "string"
        },
        {
          "internalType": "uint256",
          "name": "_landSize",
          "type": "uint256"
        },
        {
          "internalType": "string",
          "name": "_location",
          "type": "string"
        }
      ],
      "name": "updateLandOwnership",
      "outputs": [],
      "stateMutability": "nonpayable",
      "type": "function"
    },
    {
      "inputs": [
        {
          "internalType": "uint256",
          "name": "_propertyId",
          "type": "uint256"
        },
        {
          "internalType": "address",
          "name": "_newOwnerAddress",
          "type": "address"
        },
        {
          "internalType": "string",
          "name": "_newOwnerName",
          "type": "string"
        },
        {
          "internalType": "string",
          "name": "_newOwnerContactInfo",
          "type": "string"
        },
        {
          "internalType": "string",
          "name": "_thirdPartyName",
          "type": "string"
        },
        {
          "internalType": "string",
          "name": "_thirdPartyContactInfo",
          "type": "string"
        }
      ],
      "name": "transferLandOwnership",
      "outputs": [],
      "stateMutability": "nonpayable",
      "type": "function"
    }
  ],
  "bytecode": "0x608060405234801561001057600080fd5b5033600160006101000a81548173ffffffffffffffffffffffffffffffffffffffff021916908373ffffffffffffffffffffffffffffffffffffffff1602179055506117bc806100616000396000f3fe608060405234801561001057600080fd5b50600436106100575760003560e01c806348be68761461005c57806350fae05814610078578063749a90d0146100b05780638da5cb5b146100cc578063aa114136146100ea575b600080fd5b61007660048036038101906100719190610d92565b610106565b005b610092600480360381019061008d9190610f04565b6103c0565b6040516100a799989796959493929190611000565b60405180910390f35b6100ca60048036038101906100c591906110e3565b61075e565b005b6100d46109a7565b6040516100e191906111e0565b60405180910390f35b61010460048036038101906100ff9190610d92565b6109cd565b005b600073ffffffffffffffffffffffffffffffffffffffff166000808b815260200190815260200160002060000160009054906101000a900473ffffffffffffffffffffffffffffffffffffffff1673ffffffffffffffffffffffffffffffffffffffff16146101aa576040517f08c379a00000000000000000000000000000000000000000000000000000000081526004016101a190611247565b60405180910390fd5b600085116101ed576040517f08c379a00000000000000000000000000000000000000000000000000000000081526004016101e4906112d9565b60405180910390fd5b60606040518061014001604052803373ffffffffffffffffffffffffffffffffffffffff1681526020018a8152602001898152602001888152602001878152602001828152602001868152602001858152602001848152602001838152506000808c815260200190815260200160002060008201518160000160006101000a81548173ffffffffffffffffffffffffffffffffffffffff021916908373ffffffffffffffffffffffffffffffffffffffff16021790555060208201518160010190816102b99190611505565b5060408201518160020190816102cf9190611505565b5060608201518160030190816102e59190611505565b506080820151816004015560a082015181600501908051906020019061030c929190610b98565b5060c08201518160060190816103229190611505565b5060e08201518160070190816103389190611505565b50610100820151816008015561012082015181600901908161035a9190611505565b509050503373ffffffffffffffffffffffffffffffffffffffff167f7ca6c50a078d013a4a7758116d6b8415b1d4ec8b9b48836af9d3f5b6e06a6bfa8b8b8a87876040516103ac9594939291906115d7565b60405180910390a250505050505050505050565b60006020528060005260406000206000915090508060000160009054906101000a900473ffffffffffffffffffffffffffffffffffffffff169080600101805461040990611328565b80601f016020809104026020016040519081016040528092919081815260200182805461043590611328565b80156104825780601f1061045757610100808354040283529160200191610482565b820191906000526020600020905b81548152906001019060200180831161046557829003601f168201915b50505050509080600201805461049790611328565b80601f01602080910402602001604051908101604052809291908181526020018280546104c390611328565b80156105105780601f106104e557610100808354040283529160200191610510565b820191906000526020600020905b8154815290600101906020018083116104f357829003601f168201915b50505050509080600301805461052590611328565b80601f016020809104026020016040519081016040528092919081815260200182805461055190611328565b801561059e5780601f106105735761010080835404028352916020019161059e565b820191906000526020600020905b81548152906001019060200180831161058157829003601f168201915b5050505050908060040154908060060180546105b990611328565b80601f01602080910402602001604051908101604052809291908181526020018280546105e590611328565b80156106325780601f1061060757610100808354040283529160200191610632565b820191906000526020600020905b81548152906001019060200180831161061557829003601f168201915b50505050509080600701805461064790611328565b80601f016020809104026020016040519081016040528092919081815260200182805461067390611328565b80156106c05780601f10610695576101008083540402835291602001916106c0565b820191906000526020600020905b8154815290600101906020018083116106a357829003601f168201915b5050505050908060080154908060090180546106db90611328565b80601f016020809104026020016040519081016040528092919081815260200182805461070790611328565b80156107545780601f1061072957610100808354040283529160200191610754565b820191906000526020600020905b81548152906001019060200180831161073757829003601f168201915b5050505050905089565b600080600088815260200190815260200160002090503373ffffffffffffffffffffffffffffffffffffffff168160000160009054906101000a900473ffffffffffffffffffffffffffffffffffffffff1673ffffffffffffffffffffffffffffffffffffffff1614610806576040517f08c379a00000000000000000000000000000000000000000000000000000000081526004016107fd9061168b565b60405180910390fd5b600073ffffffffffffffffffffffffffffffffffffffff168673ffffffffffffffffffffffffffffffffffffffff1603610875576040517f08c379a000000000000000000000000000000000000000000000000000000000815260040161086c906116f7565b60405180910390fd5b60008160000160009054906101000a900473ffffffffffffffffffffffffffffffffffffffff169050868260000160006101000a81548173ffffffffffffffffffffffffffffffffffffffff021916908373ffffffffffffffffffffffffffffffffffffffff160217905550858260010190816108f29190611505565b50848260020190816109049190611505565b50816005014290806001815401808255809150506001900390600052602060002001600090919091909150558673ffffffffffffffffffffffffffffffffffffffff168173ffffffffffffffffffffffffffffffffffffffff167f3469e82a0e61b656fc2c9048de5b3aad8a0d0b5becfc9afd7503d7894e6c48a08a89898989604051610995959493929190611717565b60405180910390a35050505050505050565b600160009054906101000a900473ffffffffffffffffffffffffffffffffffffffff1681565b60008060008b815260200190815260200160002090503373ffffffffffffffffffffffffffffffffffffffff168160000160009054906101000a900473ffffffffffffffffffffffffffffffffffffffff1673ffffffffffffffffffffffffffffffffffffffff1614610a75576040517f08c379a0000000000000000000000000000000000000000000000000000000008152600401610a6c9061168b565b60405180910390fd5b60008611610ab8576040517f08c379a0000000000000000000000000000000000000000000000000000000008152600401610aaf906112d9565b60405180910390fd5b88816001019081610ac99190611505565b5087816002019081610adb9190611505565b5086816003019081610aed9190611505565b5085816004018190555084816006019081610b089190611505565b5083816007019081610b1a9190611505565b5082816008018190555081816009019081610b359190611505565b503373ffffffffffffffffffffffffffffffffffffffff167f2e9a53c2b029b7b57fa0a7f06bc5f9b389d569e0cc798d55a71470a79cf990678b8b8a8787604051610b849594939291906115d7565b60405180910390a250505050505050505050565b828054828255906000526020600020908101928215610bd4579160200282015b82811115610bd3578251825591602001919060010190610bb8565b5b509050610be19190610be5565b5090565b5b80821115610bfe576000816000905550600101610be6565b5090565b6000604051905090565b600080fd5b600080fd5b6000819050919050565b610c2981610c16565b8114610c3457600080fd5b50565b600081359050610c4681610c20565b92915050565b600080fd5b600080fd5b6000601f19601f8301169050919050565b7f4e487b7100000000000000000000000000000000000000000000000000000000600052604160045260246000fd5b610c9f82610c56565b810181811067ffffffffffffffff82111715610cbe57610cbd610c67565b5b80604052505050565b6000610cd1610c02565b9050610cdd8282610c96565b919050565b600067ffffffffffffffff821115610cfd57610cfc610c67565b5b610d0682610c56565b9050602081019050919050565b82818337600083830152505050565b6000610d35610d3084610ce2565b610cc7565b905082815260208101848484011115610d5157610d50610c51565b5b610d5c848285610d13565b509392505050565b600082601f830112610d7957610d78610c4c565b5b8135610d89848260208601610d22565b91505092915050565b60008060008060008060008060006101208a8c031215610db557610db4610c0c565b5b6000610dc38c828d01610c37565b99505060208a013567ffffffffffffffff811115610de457610de3610c11565b5b610df08c828d01610d64565b98505060408a013567ffffffffffffffff811115610e1157610e10610c11565b5b610e1d8c828d01610d64565b97505060608a013567ffffffffffffffff811115610e3e57610e3d610c11565b5b610e4a8c828d01610d64565b9650506080610e5b8c828d01610c37565b95505060a08a013567ffffffffffffffff811115610e7c57610e7b610c11565b5b610e888c828d01610d64565b94505060c08a013567ffffffffffffffff811115610ea957610ea8610c11565b5b610eb58c828d01610d64565b93505060e0610ec68c828d01610c37565b9250506101008a013567ffffffffffffffff811115610ee857610ee7610c11565b5b610ef48c828d01610d64565b9150509295985092959850929598565b600060208284031215610f1a57610f19610c0c565b5b6000610f2884828501610c37565b91505092915050565b600073ffffffffffffffffffffffffffffffffffffffff82169050919050565b6000610f5c82610f31565b9050919050565b610f6c81610f51565b82525050565b600081519050919050565b600082825260208201905092915050565b60005b83811015610fac578082015181840152602081019050610f91565b60008484015250505050565b6000610fc382610f72565b610fcd8185610f7d565b9350610fdd818560208601610f8e565b610fe681610c56565b840191505092915050565b610ffa81610c16565b82525050565b600061012082019050611016600083018c610f63565b8181036020830152611028818b610fb8565b9050818103604083015261103c818a610fb8565b905081810360608301526110508189610fb8565b905061105f6080830188610ff1565b81810360a08301526110718187610fb8565b905081810360c08301526110858186610fb8565b905061109460e0830185610ff1565b8181036101008301526110a78184610fb8565b90509a9950505050505050505050565b6110c081610f51565b81146110cb57600080fd5b50565b6000813590506110dd816110b7565b92915050565b60008060008060008060c08789031215611100576110ff610c0c565b5b600061110e89828a01610c37565b965050602061111f89828a016110ce565b955050604087013567ffffffffffffffff8111156111405761113f610c11565b5b61114c89828a01610d64565b945050606087013567ffffffffffffffff81111561116d5761116c610c11565b5b61117989828a01610d64565b935050608087013567ffffffffffffffff81111561119a57611199610c11565b5b6111a689828a01610d64565b92505060a087013567ffffffffffffffff8111156111c7576111c6610c11565b5b6111d389828a01610d64565b9150509295509295509295565b60006020820190506111f56000830184610f63565b92915050565b7f50726f706572747920494420616c726561647920726567697374657265640000600082015250565b6000611231601e83610f7d565b915061123c826111fb565b602082019050919050565b6000602082019050818103600083015261126081611224565b9050919050565b7f546178206173736573736d656e742076616c7565206d75737420626520706f7360008201527f6974697665000000000000000000000000000000000000000000000000000000602082015250565b60006112c3602583610f7d565b91506112ce82611267565b604082019050919050565b600060208201905081810360008301526112f2816112b6565b9050919050565b7f4e487b7100000000000000000000000000000000000000000000000000000000600052602260045260246000fd5b6000600282049050600182168061134057607f821691505b602082108103611353576113526112f9565b5b50919050565b60008190508160005260206000209050919050565b60006020601f8301049050919050565b600082821b905092915050565b6000600883026113bb7fffffffffffffffffffffffffffffffffffffffffffffffffffffffffffffffff8261137e565b6113c5868361137e565b95508019841693508086168417925050509392505050565b6000819050919050565b60006114026113fd6113f884610c16565b6113dd565b610c16565b9050919050565b6000819050919050565b61141c836113e7565b61143061142882611409565b84845461138b565b825550505050565b600090565b611445611438565b611450818484611413565b505050565b5b818110156114745761146960008261143d565b600181019050611456565b5050565b601f8211156114b95761148a81611359565b6114938461136e565b810160208510156114a2578190505b6114b66114ae8561136e565b830182611455565b50505b505050565b600082821c905092915050565b60006114dc600019846008026114be565b1980831691505092915050565b60006114f583836114cb565b9150826002028217905092915050565b61150e82610f72565b67ffffffffffffffff81111561152757611526610c67565b5b6115318254611328565b61153c828285611478565b600060209050601f83116001811461156f576000841561155d578287015190505b61156785826114e9565b8655506115cf565b601f19841661157d86611359565b60005b828110156115a557848901518255600182019150602085019450602081019050611580565b868310156115c257848901516115be601f8916826114cb565b8355505b6001600288020188555050505b505050505050565b600060a0820190506115ec6000830188610ff1565b81810360208301526115fe8187610fb8565b905081810360408301526116128186610fb8565b90506116216060830185610ff1565b81810360808301526116338184610fb8565b90509695505050505050565b7f556e617574686f72697a65642061636365737300000000000000000000000000600082015250565b6000611675601383610f7d565b91506116808261163f565b602082019050919050565b600060208201905081810360008301526116a481611668565b9050919050565b7f4e6577206f776e65722061646472657373206973207265717569726564000000600082015250565b60006116e1601d83610f7d565b91506116ec826116ab565b602082019050919050565b60006020820190508181036000830152611710816116d4565b9050919050565b600060a08201905061172c6000830188610ff1565b818103602083015261173e8187610fb8565b905081810360408301526117528186610fb8565b905081810360608301526117668185610fb8565b9050818103608083015261177a8184610fb8565b9050969550505050505056fea264697066735822122099546a0de48094e40dcfcfc2b41fbe8682a4658569195c85e974ea1e51dbea6364736f6c63430008130033",
  "immutableReferences": {},
  "source": "// SPDX-License-Identifier: UNLICENSED\r\npragma solidity ^0.8.0;\r\n\r\ncontract LandRegistry {\r\n    struct LandOwnership {\r\n        address ownerAddress;\r\n        string ownerName;\r\n        string ownerContactInfo;\r\n        string landUse;\r\n        uint taxAssessmentValue;\r\n        uint[] transferHistory;\r\n        string zoningAndPlanningDetails;\r\n        string legalDetails;\r\n        uint landSize; // added land size\r\n        string location; // added land location\r\n    }\r\n\r\n    mapping (uint => LandOwnership) public landOwnerships;\r\n\r\n    event LandOwnershipRegistered(uint propertyId, address indexed ownerAddress, string ownerName, string landUse, uint landSize, string location);\r\n    event LandOwnershipUpdated(uint propertyId, address indexed ownerAddress, string ownerName, string landUse, uint landSize, string location);\r\n    event LandOwnershipTransferred(uint propertyId, address indexed from, address indexed to, string newOwnerName, string newOwnerContactInfo, string thirdPartyName, string thirdPartyContactInfo);\r\n\r\n    address public owner;// address of the contract owner\r\n\r\n    constructor() {\r\n        owner = msg.sender;// users/landowner address\r\n    }\r\n\r\n    function registerLandOwnership(\r\n        uint _propertyId,\r\n        string memory _ownerName,\r\n        string memory _ownerContactInfo,\r\n        string memory _landUse,\r\n        uint _taxAssessmentValue,\r\n        string memory _zoningAndPlanningDetails,\r\n        string memory _legalDetails,\r\n        uint _landSize,\r\n        string memory _location\r\n    ) public {\r\n        require(landOwnerships[_propertyId].ownerAddress == address(0), \"Property ID already registered\");\r\n        require(_taxAssessmentValue > 0, \"Tax assessment value must be positive\");\r\n\r\n        uint[] memory transferHistory;\r\n\r\n        landOwnerships[_propertyId] = LandOwnership(\r\n            msg.sender,\r\n            _ownerName,\r\n            _ownerContactInfo,\r\n            _landUse,\r\n            _taxAssessmentValue,\r\n            transferHistory,\r\n            _zoningAndPlanningDetails,\r\n            _legalDetails,\r\n            _landSize,\r\n            _location\r\n        );\r\n\r\n        emit LandOwnershipRegistered(_propertyId, msg.sender, _ownerName, _landUse, _landSize, _location);\r\n    }\r\n\r\n    function updateLandOwnership(\r\n        uint _propertyId,\r\n        string memory _ownerName,\r\n        string memory _ownerContactInfo,\r\n        string memory _landUse,\r\n        uint _taxAssessmentValue,\r\n        string memory _zoningAndPlanningDetails,\r\n        string memory _legalDetails,\r\n        uint _landSize,\r\n        string memory _location\r\n    ) public {\r\n        LandOwnership storage ownership = landOwnerships[_propertyId];\r\n        require(ownership.ownerAddress == msg.sender, \"Unauthorized access\");\r\n        require(_taxAssessmentValue > 0, \"Tax assessment value must be positive\");\r\n\r\n        ownership.ownerName = _ownerName;\r\n        ownership.ownerContactInfo = _ownerContactInfo;\r\n        ownership.landUse = _landUse;\r\n        ownership.taxAssessmentValue = _taxAssessmentValue;\r\n        ownership.zoningAndPlanningDetails = _zoningAndPlanningDetails;\r\n        ownership.legalDetails = _legalDetails;\r\n        ownership.landSize = _landSize;\r\n        ownership.location = _location;\r\n\r\n        emit LandOwnershipUpdated(_propertyId, msg.sender, _ownerName, _landUse, _landSize, _location);\r\n    }\r\n\r\n    function transferLandOwnership(\r\n        uint _propertyId,\r\n        address _newOwnerAddress,\r\n        string memory _newOwnerName,\r\n        string memory _newOwnerContactInfo,\r\n        string memory _thirdPartyName,\r\n        string memory _thirdPartyContactInfo\r\n\r\n    ) public {\r\n        LandOwnership storage ownership = landOwnerships[_propertyId];\r\n        require(ownership.ownerAddress == msg.sender, \"Unauthorized access\");\r\n        require(_newOwnerAddress != address(0), \"New owner address is required\");\r\n\r\n        address oldOwnerAddress = ownership.ownerAddress;\r\n\r\n        ownership.ownerAddress = _newOwnerAddress;\r\n        ownership.ownerName = _newOwnerName;\r\n        ownership.ownerContactInfo = _newOwnerContactInfo;\r\n        ownership.transferHistory.push(block.timestamp);\r\n\r\n        emit LandOwnershipTransferred(_propertyId, oldOwnerAddress, _newOwnerAddress, _newOwnerName, _newOwnerContactInfo, _thirdPartyName, _thirdPartyContactInfo);\r\n    }\r\n}",
  "sourcePath": "C:\\Users\\Hamada Salim G-Trd\\Desktop\\express-smart-shamba-main\\contracts\\LandRegistry.sol",
  "compiler": {
    "name": "solc",
    "version": "0.8.19+commit.7dd6d404.Emscripten.clang"
  },
  "schemaVersion": "3.4.13",
  "updatedAt": "2023-03-16T16:15:09.166Z",
  "networkType": "ethereum",
  "devdoc": {
    "kind": "dev",
    "methods": {},
    "version": 1
  },
  "userdoc": {
    "kind": "user",
    "methods": {},
    "version": 1
  }
}